:1000000018C827C826C825C824C823C822C821C89C
:1000100020C81FC81EC81DC81CC81BC81AC819C8BC
:1000200018C817C816C8FFFFFFFFFFFFFFFFFFFF3D
:10003000FFFFFFFFFFFFFFFFFFFFFFFFFFFFFFFFD0
:10004000FFFFFFFFFFFFFFFFFFFFFFFFFFE00000DD
:100050001FC7FE3FF8FC07803FFFE000001FC7FE00
:100060003FF8FC07803FFFE000001FC7FE3FF8FCA1
:1000700007803FFFE3FFFF1FC7FE3FF8FC07903FED
:10008000FFE3FFFF1C3F1FFC7FE007F0007FE3FF63
:10009000FF1C3F1FFC7FE007F0007FE3FFFF1C3FDA
:1000A0001FFC7FE007F0007FE3C00F1FFFF1C3805C
:1000B0001C00F00387E3C00F1FFFF1C3801C00F09A
:1000C0000387E3C00F1FFFF1C3801C00F00387E329
:1000D000C00F1C3FF1C38FFFC0FE0387E3C00F1C9E
:1000E0003F01C38FFFC0FE0007E3C00F1C3F01C3E9
:1000F0008FFFC0FE0007E3C00F1C3F01C38FFFC08E
:10010000FE0007E3C00F1FC7FE3C78E00001E38755
:10011000E3C00F1FC7FE3C78E00001E387E3C00F98
:100120001FC7FE3C78E00001E387E3FFFF1C0F1FC1
:10013000C000007FF00007E3FFFF1C0F1FC000009E
:100140007FF00007E3FFFF1C0F1FC000007FF000DF
:1001500007E3FFFF1FCFFFC078FC7FF1E3FFE00064
:10016000001FC0FE0078FC78F1E3FFE000001FC034
:10017000FE0078FC78F1E3FFE000001FC0FE00788D
:10018000FC78F1E3FFFFFFFFFC38FE3FFFFC7FF14F
:10019000FF87FFFFFFFC38FE3FFFFC7FF1FF87FF7B
:1001A000FFFFFC38FE3FFFFC7FF1FF87E007801F69
:1001B000C71FC078FC0001FC7FE007801FC71FC07D
:1001C00078FC0001FC7FE007801FC71FC078FC009F
:1001D00001FC7FE1C78FFFC70FFFF8FFF80FFC7F1F
:1001E000E1C00FE3C7003FF8E3F80E0007E1C00FDE
:1001F000E3C7003FF8E3F80E0007E1C00FE3C700D4
:100200003FF8E3F80E0007E1FC0F1FFFFE03FFE3DA
:10021000C0FE0007E1FC0F1FFFFE03FFE3C0FE006E
:1002200007E1FC0F1FFFFE03FFE3C0FE0007E1FC38
:1002300001FC38F1FF8FFC38F03F87E1FC01FC380E
:10024000F1FF8FFC38F03F87E1FC01FC38F1FF8FB4
:10025000FC38F03F87E1FC71FC38F1FFFFFC3FF018
:100260003F87E1C0700000F03C78003F800007E16C
:10027000C0700000F03C78003F800007E1C07000D3
:1002800000F03C78003F800007FE0071FC38000061
:100290000F03F8F1E3FFFE0071FC3800000F03F8D4
:1002A000F1E3FFFE0071FC3800000F03F8F1E3FFFB
:1002B000E0078F000001C000FC37983C7FE0078F0B
:1002C000000001C000FC3F983C7FE0078F00000168
:1002D000C000FC3F803C7FE0078F000001C000FCB5
:1002E0003F803C7FFE3C0FFFF8F1C3F8FC38FFFF76
:1002F000FFFE3C0FFFF8F1C3F8FC38FFFFFFFE3CA8
:100300000FFFF8F1C3F8FC38FFFFFFFE3F8F003806
:10031000FE3C0F1FC781E387FE3F8F0038FE3C0F76
:100320001FC781E387FE3F8F0038FE3C0F1FC78148
:10033000E387FE007FFFF801FFFF003FFFE007FEBD
:10034000007FFFF801FFFF003FFFE007FE007FFF97
:10035000F801FFFF003FFFE007FFC7FFFFFF0FFFB0
:10036000FF1FFFFFFFFFFFC7801C3F1E3F801FC016
:1003700001FFFFFFC7801C3F1E3F801FC001FFFF22
:10038000FFC7801C3F1E3F801FC001FFFFE0007FB2
:10039000FC00003F8F03C7FE0387E0007FFC0000E6
:1003A0003F8F03C7FE0387E0007FFC00003F8F0301
:1003B000C7FE0387FE38701C3FFFFC000000F00002
:1003C00007FE38701C3FFFFC000000F00007FE38FD
:1003D000701C3FFFFC000000F00007FE38701C3F5F
:1003E000FFFC000000F00007FFFFFFFC07FFC3FF5A
:1003F000FFFFFFFFFFFFFFFFFC07FFC3FFFFFFFF44
:10040000FFFFFFFFFFFC07FFC3FFFFFFFFFFFFE052
:1004100000001C38F1C38F1C38000007E000001CEE
:1004200038F1C38F1C38000007E000001C38F1C30E
:100430008F1C38000007E3FFFF1FC0F1C38FFFF8D8
:10044000FFFFC7E3FFFF1FC0F1C38FFFF8FFFFC728
:10045000E3FFFF1FC0F1C38FFFF8FFFFC7E3FFFFFC
:100460001FC0F1C38FFFF8FFFFC7E3C00F1C00FEE2
:100470003C0FE038F003C7E3C00F1C00FE3C0FE068
:1004800038F003C7E3C00F1C00FE3C0FE038F00358
:10049000C7E3C00F1C3FF1C0781FF8F003C7E3C0EB
:1004A0000F1C3FF1C0781FF8F003C7E3C00F1C3FDB
:1004B000F1C0781FF8F003C7E3C00F1C07F003F882
:1004C000FFF8F003C7E3C00F1C07F003F8FFF8F0D4
:1004D00003C7E3C00F1C07F003F8FFF8F003C7E3FE
:1004E000C00F1C07F003F8FFF8F003C7E3FFFF1C81
:1004F00038F0007FFFF8FFFFC7E3FFFF1C38F00074
:100500007FFFF8FFFFC7E3FFFF1C38F0007FFFF815
:10051000FFFFC7E000001C3F1FFC78003800000709
:10052000E000001C3F1FFC780038000007E00000DE
:100530001C3F1FFC780038000007FFFFFFFFFFFF94
:10054000FFFFFFFFFFFFFFFFFFFFFFFFFFFFFFFFBB
:10055000FFFFFFFFFFFFFFFFFFFFFFFFFFFFFFFFAB
:10056000FFFFFFFFFFFFFFFFFFFFFFFFFFFF000099
:10057000000000000000000000000000000000007B
:10058000000000000000000000000000000000006B
:10059000000000000000000000000000000000005B
:1005A000000000000000000000000000000000004B
:100AE00000000000000000000000FFFFFFFFFFFF0C
:100AF000FFFFFFFFFFFFFFFFFFFFFFFFFFFFFFFF06
:100B0000FFFFFFFFFFFFFFFFFFFFFFFFFFFFFFFFF5
:100B1000FFE000001FC7FFC3800038000007F0009F
:100B2000001FC7FFC3800038000007E000001FC798
:100B3000FFC3800038000007F000001FC7FFC3801C
:100B40000038000007E1FFFF1C0700007FFE38FFB0
:100B5000FF87F1FFFF1C0700007FFE387FFF87E162
:100B6000FFFF1C0700007FFE38FFFF87F1C00F1F4B
:100B7000C00FC00FE038700387E1C00F1FC00FC067
:100B800007E038F00387F1C00F1FC00FC00FE03837
:100B9000700387E1C00F1C070E340001F8F00387D3
:100BA000F1C00F1C070E3C0001F8700387E1C00F75
:100BB0001C070E3C0001F8F00387F1C00F1C070E64
:100BC0003C0001F8700387E1C00F1FF8F003F0004C
:100BD00038F00387E1C00F1FF87003F0003870038E
:100BE00087F1C00F1FF8F003F00038F00387E1FF32
:100BF000FF1C38FFFC00FE387FFF87F1FFFF1C3829
:100C00007FFC00FE38FFFF87E1FFFF1C38FFFC0080
:100C1000FE387FFF87F0AAAA1C38F5D402BE3855EB
:100C20005507E000001C3871C38F1E38000007F024
:100C300000001C38F1C38F1E38000007E000001CC4
:100C400038F1C3871E38000007FFFFFFFFFFF1C325
:100C50008FE1FFFFFFFFFFFFFFFFFFF1C38FE1FF0A
:100C6000FFFFFFFFFFFFFFFFF1C387E1FFFFFFFF74
:100C7000E0000F000071C000FFC70E1C7FF0000FE6
:100C80000000F1C000FFC70E1C7FE0000F0000F164
:100C9000C000FFC70E1C7FF0000F000071C000FFF6
:100CA000C70E1C7FFFC380E3C7FFC38FE03801FF7F
:100CB00087FFC380E3C7FFC387E03801FF87FFC317
:100CC00080E3C7FFC38FE03801FF87FE3F801FC767
:100CD000000000FFC07FFFFFFE3F801FC700000035
:100CE000FFC0FFFFFFFE3F801FC7000000FFC07F67
:100CF000FFFFE1FFFFFFC00FC07FE03F0E1C7FF151
:100D0000FFFFFFC00FC07FE03F0E1C7FE1FFFFFF32
:100D1000C00FC07FE03F0E1C7FF155755FC00E8095
:100D20002DE03FAE187FFE00701FC70E0000E1FFF0
:100D3000FE03FFFE00701FC70E0000E1FFFE03FF71
:100D4000FE00701FC70E0000E1FFFE03FFFE038FD1
:100D5000FFC0F1FC0F01C071FF87FE038FFFC0F1E0
:100D6000FC0F01C0F1FF87FE038FFFC071FC07017C
:100D7000C071FF87FE007003FFFE007F1E380E0368
:100D8000FFFE007003FFFE007F1E380E03FFFE0013
:100D90007003FFFE007F1E380E03FFFE007003FF8E
:100DA000FE007F1C380E03FFE03C0FFC3FF1C00F3C
:100DB000FE3801FC7FF03C0FFC3FF1C007FE38011C
:100DC000FC7FE03C0FFC3FF1C00FFE3801FC7FFFD1
:100DD000FF801C0071C070FFFF0E03FFFFFF801C2F
:100DE00000F1C070FFFF0E03FFFFFF801C0071C009
:100DF00070FFFF8E03FFF1C06DBC10F4028EE0386F
:100E0000014387E1C07FFC38FE038FE03801E387B0
:100E1000F1C07FFC38FE038FE03801E387E1C07F3B
:100E2000FC387E0387E03801E387F1FC7F1C00017A
:100E3000FC0FFFFF0FE3FFE1FC7F1C0001FC0FFF35
:100E4000FF8FE3FFF1FC7F1C0001FC07FFFF0FE3B6
:100E5000FFE1FF8FFC070FFC0F01FF01FC7FF1FF9B
:100E60008FFC070FFC0F01FF81FC7FE1FF8FFC0768
:100E70000FFC0701FF01FC7FF1FF8F1C3F0E038079
:100E8000FE0001E007E1FF8F1C3F0E0380FE000122
:100E9000E007F1FF8F1C3F0E0380FE0001E007E139
:100EA000FF8F1C3F0E0380FC0001E007FFFFFFFCEB
:100EB00000F1FFFF1E3FF00007FFFFFFFC00F1FF06
:100EC000FF1E3FF00007FFFFFFFC0071FFFF1E3F0A
:100ED000F00007E000001C38FE3C700038F003FF13
:100EE000F000001C38FE3C7000387003FFE000008A
:100EF0001C387E3C700038F003FFF155551D78F228
:100F00008296A03AF15787E1FFFF1FF8F1C38FE007
:100F10003FF1FF87F1FFFF1FF871C38FE03FF1FF43
:100F200087E1FFFF1FF8F1C387E03FF1FF87F1C0C2
:100F30000F1C38F1C000FE0001E007E1C00F1C38B3
:100F400071C000FC0001E007F1C00F1C38F1C000C7
:100F5000FE0001E007E1C00F1C07FFC38001FF0E88
:100F60000007F1C00F1C07FFC38001FF0E0007E15F
:100F7000C00F1C07FFC38001FF0E0007F1C00F1C4C
:100F80000777C38001FF0E0007E1C00F1C0701FCBB
:100F90000F01F800007FF1C00F1C0701FC0F01F8E2
:100FA00000007FE1C00F1C0701FC0F01F800007F6B
:100FB000F1FFFF1C3F0FC387003F0E1C7FE1FFFFC7
:100FC0001C3F0FC38F003F0E1C7FF1FFFF1C3F0F24
:100FD000C38F003F0E1C7FE000001C0701FF800153
:100FE000C78003FFE000001C0701FF8001C700036A
:100FF000FFF000001C0701FF8001C70003FFE000B5
:10100000001C0701FF8001C78003FFFFFFFFFFFFF8
:10101000FFFFFFFFFFFFFFFFFFFFFFFFFFFFFFFFE0
:10102000FFFFFFFFFFFFFFFFFFFFFFFFFFFFFFFFD0
:10103000FFFF11241FBECFE5D4E0DEBFCDBF10E01F
:10104000A0E6B0E001C01D92A136B107E1F7BFD123
:1010500000C2D6C7A99AA8988FB9779BFECFA89A45
:101060000895A998A8988FB9779BFECFA89AA99AB6
:101070000895AA9884E294EFFC013197F1F7AA9AB7
:101080000197F1F786E0EDDF87E1E4DF87E1E2DF5A
:1010900087E1E0DF84E0E5DF28EA31E603C0C9014B
:1010A0000197F1F79B9BFBCF80E0DBDF8FE0D2DF86
:1010B0008DE0D0DF81E6D5DF88E6CCDF80E0CADFD7
:1010C00084EDC8DF80E5CDDF87E7C4DF0895CF92E8
:1010D000DF92EF92FF920F931F93CF93DF937C01E8
:1010E0008A0128EA31E603C0C9010197F1F79B9B09
:1010F000FBCF80E1B6DFC0E0D0E088EAC82E81E611
:10110000D82E11C0C6010197F1F79B9BFBCFE114CC
:10111000F10411F48FEF05C0FE01EA5DFF4FE49189
:101120008E2F98DF2196C017D10778F304C0C9012C
:101130000197F1F702C028EA31E69B9BF8CF81E1E5
:1011400090DF8FEF87DFDF91CF911F910F91FF909D
:10115000EF90DF90CF900895CF92DF92EF92FF92C1
:101160000F931F93CF93DF93D82EC62E7A0128EAD0
:1011700031E603C0C9010197F1F79B9BFBCF80E1EA
:1011800070DFC0E0D0E008EA11E608C0C8010197AE
:10119000F1F79B9BFBCF8D2D5DDF2196CE15DF05F3
:1011A000C0F304C0C9010197F1F702C028EA31E693
:1011B0009B9BF8CF04C0C9010197F1F702C028EA50
:1011C00031E69B9BF8CF04C0C9010197F1F702C03B
:1011D00028EA31E69B9BF8CF83E143DFC0E0D0E013
:1011E00008EA11E608C0C8010197F1F79B9BFBCF05
:1011F0008C2D30DF2196CE15DF05C0F304C0C90168
:101200000197F1F702C028EA31E69B9BF8CF81E114
:1012100028DF8FEF1FDFDF91CF911F910F91FF909C
:10122000EF90DF90CF9008958F929F92AF92BF92F0
:10123000CF92DF92EF920F931F93C62E142FA22E00
:10124000882E992481E90DDF80E90BDF882D880F36
:10125000880F880FFFDE8C2D880F880F880F8B5F1B
:10126000F9DE80E0F7DE812FF5DE80E0F3DE8A2D07
:10127000F1DE81E0EFDEBB24A11AB108DD24C8183D
:10128000D9080894C11CD11CAC9CA001AD9C500D88
:10129000BC9C500D1124802F6E2D5EDF28EA31E6B4
:1012A00003C0C9010197F1F79B9BFBCF82E9D9DE0F
:1012B0001F910F91EF90DF90CF90BF90AF909F90D4
:1012C0008F9008959F92AF92BF92CF92DF92EF924C
:1012D000FF920F931F93DF93CF9300D0CDB7DEB76C
:1012E000A62E942EC22E1A830983082F10E081E9BE
:1012F000B8DE80E9B6DE802F880F880F880FAADE5F
:101300008A2D880F880F880F8B5FA4DE80E0A2DE15
:10131000892DA0DE80E09EDE8C2D9CDE81E09ADEB1
:10132000DD24C918D108BB24A01AB10ACA9CA001A7
:10133000CB9C500DDA9C500D1124CE010196B701C3
:10134000C6DE28EA31E603C0C9010197F1F79B9B8D
:10135000FBCF82E986DE0F900F90CF91DF911F9136
:101360000F91FF90EF90DF90CF90BF90AF909F9044
:10137000089528EA31E603C0C9010197F1F79B9B64
:10138000FBCF82E16EDE88E893E129E130E0F901EC
:101390003197F1F70197D9F704C0C9010197F1F727
:1013A00002C028EA31E69B9BF8CF089580E559DE1C
:1013B00087EF50DE82E055DE28EA31E603C0C9013E
:1013C0000197F1F79B9BFBCF10926000089587B3C4
:1013D0008C6287BB84B3876084BBBC98A398909AC7
:1013E0006C9A689A6E9A45DE8FEF6FEF44EC5AE084
:1013F000B3DE28EA31E603C0C9010197F1F79B9BF0
:10140000FBCFE6E2F0E0E4918E2F90E060E070E048
:1014100044EC5AE05CDE28EA31E603C0C9010197DA
:10142000F1F79B9BFBCFA5DF28EA31E603C0C9019A
:101430000197F1F79B9BFBCFB9DF80E090E0089527
:1014400028EA31E603C0C9010197F1F79B9BFBCF66
:061450000895F894FFCF9F
:00000001FF
