:1000000018C827C826C825C824C823C822C821C89C
:1000100020C81FC81EC81DC81CC81BC81AC819C8BC
:1000200018C817C816C8FFFFFFFFFFFFFFFFFFFF3D
:10003000FFFFFFFFFFFFFFFFFFFFFFFFFFFFFFFFD0
:10004000F0FFFFFFFFFFFFFFFFFFFFFFFFFFFFFFCF
:10005000FFFFFFFFFFFFFFFFFFFFFFF0FFFFFFFFBF
:10006000FFFFFFFFFFFFFFFFFFFFFFFFFFFFFFFFA0
:10007000FFFFFFFFFFFFF0FFFFFFFFFFFFFFFFFF9F
:10008000FFFFFFFFFF000001FC7FFC380003800042
:100090000070FFFFFFFFFFFFFFFFFFFFFFFFFFFFFE
:1000A000000001FC7FFC38000380000070FFFFFFB0
:1000B000FFFFFFFFFFFFFFFFFFFFFF000001FC7FCF
:1000C000FC38000380000070FFFFFFFFFFFFFFFF11
:1000D000FFFFFFFFFFFF1FFFF1FC7FFC3800038FD6
:1000E000FFFC70FFFFFFFFFFFFFFFFFFFFFFFFFFB2
:1000F000FF1FFFF1C0780007FFE38FFFFC70FFFFD9
:10010000FFFFFFFFFFFFFFFFFFFFFFFF1FFFF1C02C
:10011000780007FFE38FFFFC70FFFFFFFFFFFFFF8B
:10012000FFFFFFFFFFFFFF1FFFF1C0780007FFE3A6
:100130008FFFFC70FFFFFFFFFFFFFFFFFFFFFFFFD1
:10014000FFFF1C00F1FC00FC00FE038F003C70FF71
:10015000FFFFFFFFFFFFFFFFFFFFFFFFFF1C00F19F
:10016000FC00FC00FE038F003C70FFFFFFFFFFFF61
:10017000FFFFFFFFFFFFFFFF1C00F1FC00FC00FE84
:10018000038F003C70FFFFFFFFFFFFFFFFFFFFFF3C
:10019000FFFFFF1C00F1C078FFC0FE3F8F003C70E6
:1001A000FFFFFFFFFFFFFFFFFFFFFFFFFFFF1C0041
:1001B000F1C078E3C0003F8F003C70FFFFFFFFFFFE
:1001C000FFFFFFFFFFFFFFFFFF1C00F1C078E3C050
:1001D000003F8F003C70FFFFFFFFFFFFFFFFFFFFAF
:1001E000FFFFFFFF1C00F1C078E3C0003F8F003C21
:1001F00070FFFFFFFFFFFFFFFFFFFFFFFFFFFF1C81
:1002000000F1FF8F003F80038F003C70FFFFFFFF76
:10021000FFFFFFFFFFFFFFFFFFFF1C00F1FF8F004D
:100220003F80038F003C70FFFFFFFFFFFFFFFFFFDA
:10023000FFFFFFFFFF1C00F1FF8F003F80038F00D7
:100240003C70FFFFFFFFFFFFFFFFFFFFFFFFFFFF10
:100250001FFFF1C38FFFC00FE38FFFFC70FFFFFF95
:10026000FFFFFFFFFFFFFFFFFFFFFF1FFFF1C38F38
:10027000FFC00FE38FFFFC70FFFFFFFFFFFFFFFFDB
:10028000FFFFFFFFFFFF1FFFF1C38FFFC00FE38FD3
:10029000FFFC70FFFFFFFFFFFFFFFFFFFFFFFFFF00
:1002A000FF1FFFF1C38FFFF8FFE38FFFFC70FFFF1D
:1002B000FFFFFFFFFFFFFFFFFFFFFFFF000001C386
:1002C0008F1C38F1E380000070FFFFFFFFFFFFFF8E
:1002D000FFFFFFFFFFFFFF000001C38F1C38F1E3AA
:1002E00080000070FFFFFFFFFFFFFFFFFFFFFFFF2A
:1002F000FFFF000001C38F1C38F1E380000070FF96
:10030000FFFFFFFFFFFFFFFFFFFFFFFFFFFFFFFFFD
:10031000FFFF1C38FE3FFFFFFFF0FFFFFFFFFFFF67
:10032000FFFFFFFFFFFFFFFFFFFFFFFFFF1C38FE88
:100330003FFFFFFFF0FFFFFFFFFFFFFFFFFFFFFF9C
:10034000FFFFFFFFFFFFFFFF1C38FE3FFFFFFFF037
:10035000FFFFFFFFFFFFFFFFFFFFFFFFFFFF0000AB
:10036000F0000F1C000FFC78E1C7F0FFFFFFFFFF5C
:10037000FFFFFFFFFFFFFFFFFF0000F0000F1C006B
:100380000FFC78E1C7F0FFFFFFFFFFFFFFFFFFFF5C
:10039000FFFFFFFF0000F0000F1C000FFC78E1C71B
:1003A000F0FFFFFFFFFFFFFFFFFFFFFFFFFFFF006B
:1003B00000F0000F1C000FFC78E1C7F0FFFFFFFF0B
:1003C000FFFFFFFFFFFFFFFFFFFFFC380E3C7FFC3E
:1003D00038FE03801FF870FFFFFFFFFFFFFFFFFFE6
:1003E000FFFFFFFFFFFC380E3C7FFC38FE03801F41
:1003F000F870FFFFFFFFFFFFFFFFFFFFFFFFFFFFA3
:10040000FC380E3C7FFC38FE038F1FF870FFFFFFA7
:10041000FFFFFFFFFFFFFFFFFFFFFFE3F801FC7897
:1004200000000FFC0FFFFFF0FFFFFFFFFFFFFFFFCC
:10043000FFFFFFFFFFFFE3F801FC7800000FFC0F58
:10044000FFFFF0FFFFFFFFFFFFFFFFFFFFFFFFFFCB
:10045000FFE3F801FC7800000FFC0FFFFFF0FFFF47
:10046000FFFFFFFFFFFFFFFFFFFFFFFF1FFFFFFC7F
:1004700000FC07FE03F8E3C7F0FFFFFFFFFFFFFFED
:10048000FFFFFFFFFFFFFF1FFFFFFC00FC07FE0356
:10049000F8E3C7F0FFFFFFFFFFFFFFFFFFFFFFFFD6
:1004A000FFFF1FFFFFFC00FC07FE03F8E3C7F0FFA0
:1004B000FFFFFFFFFFFFFFFFFFFFFFFFFFFFFFFF4C
:1004C000FC70FC07FE1FFFE3FFF0FFFFFFFFFFFFD5
:1004D000FFFFFFFFFFFFFFFFE00701FC78E0000EDA
:1004E0003FFFE03FF0FFFFFFFFFFFFFFFFFFFFFFCA
:1004F000FFFFFFE00701FC78E0000E3FFFE03FF068
:10050000FFFFFFFFFFFFFFFFFFFFFFFFFFFFE00712
:1005100001FC78E0000E3FFFE03FF0FFFFFFFFFF30
:10052000FFFFFFFFFFFFFFFFFFE038FFFC0F1FC0D3
:10053000F03C0F1FF870FFFFFFFFFFFFFFFFFFFF03
:10054000FFFFFFFFE038FFFC0F1FC0F03C0F1FF85C
:1005500070FFFFFFFFFFFFFFFFFFFFFFFFFFFFE059
:1005600038FFFC0F1FC0F03C0F1FF870FFFFFFFFAC
:10057000FFFFFFFFFFFFFFFFFFFFE007003FFFE080
:1005800007F1E380E03FF0FFFFFFFFFFFFFFFFFF0A
:10059000FFFFFFFFFFE007003FFFE007F1E380E020
:1005A0003FF0FFFFFFFFFFFFFFFFFFFFFFFFFFFF2A
:1005B000E007003FFFE007F1E380E03FF0FFFFFFCF
:1005C000FFFFFFFFFFFFFFFFFFFFFFE007003FFF11
:1005D000E007F1E380E03FF0FFFFFFFFFFFFFFFFD9
:1005E000FFFFFFFFFFFF03C0FFC3FF1C00FFE3800F
:1005F0001FC7F0FFFFFFFFFFFFFFFFFFFFFFFFFF32
:10060000FF03C0FFC3FF1C00FFE3801FC7F0FFFF15
:10061000FFFFFFFFFFFFFFFFFFFFFFFF03C0FFC361
:10062000FF1C00FFE3801FC7F0FFFFFFFFFFFFFF7E
:10063000FFFFFFFFFFFFFFFFF801C00F1C078FFF49
:10064000F8E03FF0FFFFFFFFFFFFFFFFFFFFFFFFAF
:10065000FFFFFFF801C00F1C078FFFF8E03FF0FF1E
:10066000FFFFFFFFFFFFFFFFFFFFFFFFFFFFF8019F
:10067000C00F1C078FFFF8E03FF0FFFFFFFFFFFFF9
:10068000FFFFFFFFFFFFFFFFFFFFFFC38FFC3FFFE9
:10069000FFF8FE3FF0FFFFFFFFFFFFFFFFFFFFFF41
:1006A000FFFFFF1C07FFC38FE038FE03801E38707A
:1006B000FFFFFFFFFFFFFFFFFFFFFFFFFFFF1C0725
:1006C000FFC38FE038FE03801E3870FFFFFFFFFF7F
:1006D000FFFFFFFFFFFFFFFFFF1C07FFC38FE03897
:1006E000FE03801E3870FFFFFFFFFFFFFFFFFFFFCD
:1006F000FFFFFFFF1FC7F1C0001FC0FFFFF8FE3F55
:10070000F0FFFFFFFFFFFFFFFFFFFFFFFFFFFF1FE8
:10071000C7F1C0001FC0FFFFF8FE3FF0FFFFFFFF63
:10072000FFFFFFFFFFFFFFFFFFFF1FC7F1C0001F1D
:10073000C0FFFFF8FE3FF0FFFFFFFFFFFFFFFFFFDF
:10074000FFFFFFFFFF1FF8FFC078FFC0F03FF81F5B
:10075000C7F0FFFFFFFFFFFFFFFFFFFFFFFFFFFFF0
:100760001FF8FFC078FFC0F03FF81FC7F0FFFFFF82
:10077000FFFFFFFFFFFFFFFFFFFFFF1FF8FFC07836
:10078000FFC0F03FF81FC7F0FFFFFFFFFFFFFFFFB5
:10079000FFFFFFFFFFFF1FF8F1C3F8E0380FE00095
:1007A0001E0070FFFFFFFFFFFFFFFFFFFFFFFFFFC8
:1007B000FF1FF8F1C3F8E0380FE0001E0070FFFFE4
:1007C000FFFFFFFFFFFFFFFFFFFFFFFF1FF8F1C36A
:1007D000F8E0380FE0001E0070FFFFFFFFFFFFFF93
:1007E000FFFFFFFFFFFFFF1FF8F1C3F8E0380FE343
:1007F000FF1E0070FFFFFFFFFFFFFFFFFFFFFFFF78
:10080000FFFFFFFFFFC00F1FFFF1E3FF000070FFBE
:10081000FFFFFFFFFFFFFFFFFFFFFFFFFFFFFFFFE8
:10082000C00F1FFFF1E3FF000070FFFFFFFFFFFF9E
:10083000FFFFFFFFFFFFFFFFFFFFFFC00F1FBFF125
:10084000E3FF000070FFFFFFFFFFFFFFFFFFFFFF61
:10085000FFFFFF000001C38FE3C780038F003FF05D
:10086000FFFFFFFFFFFFFFFFFFFFFFFFFFFF000096
:1008700001C38FE3C780038F003FF0FFFFFFFFFF3F
:10088000FFFFFFFFFFFFFFFFFF000001C38FE3C774
:1008900080038F003FF0FFFFFFFFFFFFFFFFFFFF21
:1008A000FFFFFFFF1FFFF1FF8FFFFFFE03FF1FFF93
:1008B000F0FFFFFFFFFFFFFFFFFFFFFFFFFFFF1F37
:1008C000FFF1FF8F1C38FE03FF1FF870FFFFFFFFD3
:1008D000FFFFFFFFFFFFFFFFFFFF1FFFF1FF8F1C69
:1008E00038FE03FF1FF870FFFFFFFFFFFFFFFFFF52
:1008F000FFFFFFFFFF1FFFF1FF8F1CF8FE03FF1F2D
:10090000FC70FFFFFFFFFFFFFFFFFFFFFFFFFFFF89
:100910001C00F1C38F1CC00FE0001E0070FFFFFF22
:10092000FFFFFFFFFFFFFFFFFFFFFF1C00F1C38F73
:100930001C000FE0001E0070FFFFFFFFFFFFFFFF26
:10094000FFFFFFFFFFFF1C00F1C38F1C000FE00043
:100950001E0070FFFFFFFFFFFFFFFFFFFFFFFFFF16
:10096000FF1C00F1C07FFC38003FF8E00070FFFF83
:10097000FFFFFFFFFFFFFFFFFFFFFFFF1C00F1C0B6
:100980007FFC38003FF8E00070FFFFFFFFFFFFFF34
:10099000FFFFFFFFFFFFFF1C00F1C07FFC38003F9F
:1009A000F8E00070FFFFFFFFFFFFFFFFFFFFFFFF0B
:1009B000FFFF1C00F1C07FFFF8F03FF8E007F0FFF9
:1009C000FFFFFFFFFFFFFFFFFFFFFFFFFF1C00F127
:1009D000C0781FC0F03F800007F0FFFFFFFFFFFF60
:1009E000FFFFFFFFFFFFFFFF1C00F1C0781FC0F0FB
:1009F0003F800007F0FFFFFFFFFFFFFFFFFFFFFF4C
:100A0000FFFFFF1C00F1C0781FC0F03F800007F01F
:100A1000FFFFFFFFFFFFFFFFFFFFFFFFFFFF1FFFC6
:100A2000F1C3F8FC38F003F8E3C7F0FFFFFFFFFF66
:100A3000FFFFFFFFFFFFFFFFFF1FFFF1C3F8FC38C1
:100A4000F003F8E3C7F0FFFFFFFFFFFFFFFFFFFF2B
:100A5000FFFFFFFF1FFFF1C3F8FC38F003F8E3C707
:100A6000F0FFFFFFFFFFFFFFFFFFFFFFFFFFFF1F85
:100A7000FFF1C0781FF8003C78003FF0FFFFFFFF58
:100A8000FFFFFFFFFFFFFFFFFFFF000001C0781F18
:100A9000F8003C78003FF0FFFFFFFFFFFFFFFFFF84
:100AA000FFFFFFFFFF000001C0781FF8003C780047
:100AB0003FF0FFFFFFFFFFFFFFFFFFFFFFFFFFFF15
:100AC000000001C0781FF8003C78003FF0FFFFFFF6
:100AD000FFFFFFFFFFFFFFFFFFFFFFFFFFFFFFFF26
:100AE000FFFFFFFFFFFFFFF0FFFFFFFFFFFFFFFF25
:100AF000FFFFFFFFFFFFFFFFFFFFFFFFFFFFFFFF06
:100B0000FFFFFFFFFFFFFFFFFFFFFFFFFFFFFFFFF5
:100B1000FFE000001FC7FFC3800038000007F0009F
:100B2000001FC7FFC3800038000007E000001FC798
:100B3000FFC3800038000007F000001FC7FFC3801C
:100B40000038000007E1FFFF1C0700007FFE38FFB0
:100B5000FF87F1FFFF1C0700007FFE387FFF87E162
:100B6000FFFF1C0700007FFE38FFFF87F1C00F1F4B
:100B7000C00FC00FE038700387E1C00F1FC00FC067
:100B800007E038F00387F1C00F1FC00FC00FE03837
:100B9000700387E1C00F1C070E340001F8F00387D3
:100BA000F1C00F1C070E3C0001F8700387E1C00F75
:100BB0001C070E3C0001F8F00387F1C00F1C070E64
:100BC0003C0001F8700387E1C00F1FF8F003F0004C
:100BD00038F00387E1C00F1FF87003F0003870038E
:100BE00087F1C00F1FF8F003F00038F00387E1FF32
:100BF000FF1C38FFFC00FE387FFF87F1FFFF1C3829
:100C00007FFC00FE38FFFF87E1FFFF1C38FFFC0080
:100C1000FE387FFF87F0AAAA1C38F5D402BE3855EB
:100C20005507E000001C3871C38F1E38000007F024
:100C300000001C38F1C38F1E38000007E000001CC4
:100C400038F1C3871E38000007FFFFFFFFFFF1C325
:100C50008FE1FFFFFFFFFFFFFFFFFFF1C38FE1FF0A
:100C6000FFFFFFFFFFFFFFFFF1C387E1FFFFFFFF74
:100C7000E0000F000071C000FFC70E1C7FF0000FE6
:100C80000000F1C000FFC70E1C7FE0000F0000F164
:100C9000C000FFC70E1C7FF0000F000071C000FFF6
:100CA000C70E1C7FFFC380E3C7FFC38FE03801FF7F
:100CB00087FFC380E3C7FFC387E03801FF87FFC317
:100CC00080E3C7FFC38FE03801FF87FE3F801FC767
:100CD000000000FFC07FFFFFFE3F801FC700000035
:100CE000FFC0FFFFFFFE3F801FC7000000FFC07F67
:100CF000FFFFE1FFFFFFC00FC07FE03F0E1C7FF151
:100D0000FFFFFFC00FC07FE03F0E1C7FE1FFFFFF32
:100D1000C00FC07FE03F0E1C7FF155755FC00E8095
:100D20002DE03FAE187FFE00701FC70E0000E1FFF0
:100D3000FE03FFFE00701FC70E0000E1FFFE03FF71
:100D4000FE00701FC70E0000E1FFFE03FFFE038FD1
:100D5000FFC0F1FC0F01C071FF87FE038FFFC0F1E0
:100D6000FC0F01C0F1FF87FE038FFFC071FC07017C
:100D7000C071FF87FE007003FFFE007F1E380E0368
:100D8000FFFE007003FFFE007F1E380E03FFFE0013
:100D90007003FFFE007F1E380E03FFFE007003FF8E
:100DA000FE007F1C380E03FFE03C0FFC3FF1C00F3C
:100DB000FE3801FC7FF03C0FFC3FF1C007FE38011C
:100DC000FC7FE03C0FFC3FF1C00FFE3801FC7FFFD1
:100DD000FF801C0071C070FFFF0E03FFFFFF801C2F
:100DE00000F1C070FFFF0E03FFFFFF801C0071C009
:100DF00070FFFF8E03FFF1C06DBC10F4028EE0386F
:100E0000014387E1C07FFC38FE038FE03801E387B0
:100E1000F1C07FFC38FE038FE03801E387E1C07F3B
:100E2000FC387E0387E03801E387F1FC7F1C00017A
:100E3000FC0FFFFF0FE3FFE1FC7F1C0001FC0FFF35
:100E4000FF8FE3FFF1FC7F1C0001FC07FFFF0FE3B6
:100E5000FFE1FF8FFC070FFC0F01FF01FC7FF1FF9B
:100E60008FFC070FFC0F01FF81FC7FE1FF8FFC0768
:100E70000FFC0701FF01FC7FF1FF8F1C3F0E038079
:100E8000FE0001E007E1FF8F1C3F0E0380FE000122
:100E9000E007F1FF8F1C3F0E0380FE0001E007E139
:100EA000FF8F1C3F0E0380FC0001E007FFFFFFFCEB
:100EB00000F1FFFF1E3FF00007FFFFFFFC00F1FF06
:100EC000FF1E3FF00007FFFFFFFC0071FFFF1E3F0A
:100ED000F00007E000001C38FE3C700038F003FF13
:100EE000F000001C38FE3C7000387003FFE000008A
:100EF0001C387E3C700038F003FFF155551D78F228
:100F00008296A03AF15787E1FFFF1FF8F1C38FE007
:100F10003FF1FF87F1FFFF1FF871C38FE03FF1FF43
:100F200087E1FFFF1FF8F1C387E03FF1FF87F1C0C2
:100F30000F1C38F1C000FE0001E007E1C00F1C38B3
:100F400071C000FC0001E007F1C00F1C38F1C000C7
:100F5000FE0001E007E1C00F1C07FFC38001FF0E88
:100F60000007F1C00F1C07FFC38001FF0E0007E15F
:100F7000C00F1C07FFC38001FF0E0007F1C00F1C4C
:100F80000777C38001FF0E0007E1C00F1C0701FCBB
:100F90000F01F800007FF1C00F1C0701FC0F01F8E2
:100FA00000007FE1C00F1C0701FC0F01F800007F6B
:100FB000F1FFFF1C3F0FC387003F0E1C7FE1FFFFC7
:100FC0001C3F0FC38F003F0E1C7FF1FFFF1C3F0F24
:100FD000C38F003F0E1C7FE000001C0701FF800153
:100FE000C78003FFE000001C0701FF8001C700036A
:100FF000FFF000001C0701FF8001C70003FFE000B5
:10100000001C0701FF8001C78003FFFFFFFFFFFFF8
:10101000FFFFFFFFFFFFFFFFFFFFFFFFFFFFFFFFE0
:10102000FFFFFFFFFFFFFFFFFFFFFFFFFFFFFFFFD0
:10103000FFFF11241FBECFE5D4E0DEBFCDBF10E01F
:10104000A0E6B0E001C01D92A136B107E1F7BFD123
:1010500000C2D6C7A99AA8988FB9779BFECFA89A45
:101060000895A998A8988FB9779BFECFA89AA99AB6
:101070000895AA9884E294EFFC013197F1F7AA9AB7
:101080000197F1F786E0EDDF87E1E4DF87E1E2DF5A
:1010900087E1E0DF84E0E5DF28EA31E603C0C9014B
:1010A0000197F1F79B9BFBCF80E0DBDF8FE0D2DF86
:1010B0008DE0D0DF81E6D5DF88E6CCDF80E0CADFD7
:1010C00084EDC8DF80E5CDDF87E7C4DF0895CF92E8
:1010D000DF92EF92FF920F931F93CF93DF937C01E8
:1010E0008A0128EA31E603C0C9010197F1F79B9B09
:1010F000FBCF80E1B6DFC0E0D0E088EAC82E81E611
:10110000D82E11C0C6010197F1F79B9BFBCFE114CC
:10111000F10411F48FEF05C0FE01EA5DFF4FE49189
:101120008E2F98DF2196C017D10778F304C0C9012C
:101130000197F1F702C028EA31E69B9BF8CF81E1E5
:1011400090DF8FEF87DFDF91CF911F910F91FF909D
:10115000EF90DF90CF900895CF92DF92EF92FF92C1
:101160000F931F93CF93DF93D82EC62E7A0128EAD0
:1011700031E603C0C9010197F1F79B9BFBCF80E1EA
:1011800070DFC0E0D0E008EA11E608C0C8010197AE
:10119000F1F79B9BFBCF8D2D5DDF2196CE15DF05F3
:1011A000C0F304C0C9010197F1F702C028EA31E693
:1011B0009B9BF8CF04C0C9010197F1F702C028EA50
:1011C00031E69B9BF8CF04C0C9010197F1F702C03B
:1011D00028EA31E69B9BF8CF83E143DFC0E0D0E013
:1011E00008EA11E608C0C8010197F1F79B9BFBCF05
:1011F0008C2D30DF2196CE15DF05C0F304C0C90168
:101200000197F1F702C028EA31E69B9BF8CF81E114
:1012100028DF8FEF1FDFDF91CF911F910F91FF909C
:10122000EF90DF90CF9008958F929F92AF92BF92F0
:10123000CF92DF92EF920F931F93C62E142FA22E00
:10124000882E992481E90DDF80E90BDF882D880F36
:10125000880F880FFFDE8C2D880F880F880F8B5F1B
:10126000F9DE80E0F7DE812FF5DE80E0F3DE8A2D07
:10127000F1DE81E0EFDEBB24A11AB108DD24C8183D
:10128000D9080894C11CD11CAC9CA001AD9C500D88
:10129000BC9C500D1124802F6E2D5EDF28EA31E6B4
:1012A00003C0C9010197F1F79B9BFBCF82E9D9DE0F
:1012B0001F910F91EF90DF90CF90BF90AF909F90D4
:1012C0008F9008959F92AF92BF92CF92DF92EF924C
:1012D000FF920F931F93DF93CF9300D0CDB7DEB76C
:1012E000A62E942EC22E1A830983082F10E081E9BE
:1012F000B8DE80E9B6DE802F880F880F880FAADE5F
:101300008A2D880F880F880F8B5FA4DE80E0A2DE15
:10131000892DA0DE80E09EDE8C2D9CDE81E09ADEB1
:10132000DD24C918D108BB24A01AB10ACA9CA001A7
:10133000CB9C500DDA9C500D1124CE010196B701C3
:10134000C6DE28EA31E603C0C9010197F1F79B9B8D
:10135000FBCF82E986DE0F900F90CF91DF911F9136
:101360000F91FF90EF90DF90CF90BF90AF909F9044
:10137000089528EA31E603C0C9010197F1F79B9B64
:10138000FBCF82E16EDE88E893E129E130E0F901EC
:101390003197F1F70197D9F704C0C9010197F1F727
:1013A00002C028EA31E69B9BF8CF089580E559DE1C
:1013B00087EF50DE82E055DE28EA31E603C0C9013E
:1013C0000197F1F79B9BFBCF10926000089587B3C4
:1013D0008C6287BB84B3876084BBBC98A398909AC7
:1013E0006C9A689A6E9A45DE8FEF6FEF44EC5AE084
:1013F000B3DE28EA31E603C0C9010197F1F79B9BF0
:10140000FBCFE6E2F0E0E4918E2F90E060E070E048
:1014100044EC5AE05CDE28EA31E603C0C9010197DA
:10142000F1F79B9BFBCFA5DF28EA31E603C0C9019A
:101430000197F1F79B9BFBCFB9DF80E090E0089527
:1014400028EA31E603C0C9010197F1F79B9BFBCF66
:061450000895F894FFCF9F
:00000001FF
