:1000000012C024C023C022C021C020C01FC01EC0F7
:100010001DC01CC01BC01AC019C018C017C016C014
:1000200015C014C013C011241FBECFE5D4E0DEBF3D
:10003000CDBF10E0A0E6B0E0E2EEF0E002C0059037
:100040000D92A638B107D9F702D049C0D9CFCF92C7
:10005000DF92EF92FF920F931F93CF93DF9380E095
:1000600090E0C0E0D0E022E0E22EF12CE80EF91E94
:100070008C010C0F1D1F0E5F1F4F8DE7C82E80E0F7
:10008000D82ECE0CDF1C0BC0D601ED91FC91EC0FED
:10009000FD1FC801608116D021960F5F1F4FEC161F
:1000A000FD0691F7C630D10511F0CE01DCCF80E01E
:1000B00090E0DF91CF911F910F91FF90EF90DF9033
:1000C000CF900895262FE199FECF9FBB8EBB2DBB0D
:1000D0000FB6F894E29AE19A0FBE01960895F8944B
:0200E000FFCF50
:1000E2001004FFFFFFFFFFFFFFFF1004C3C3C3C3E2
:1000F200C3C3C3C3100499999999999999990360B3
:060102000074006A000019
:00000001FF
