:10000000B3C0CDC0CCC0CBC0CAC0C9C0C8C0C7C0B7
:10001000C6C0C5C0C4C0C3C0C2C0C1C0C0C0BFC0CC
:10002000BEC0BDC0BCC0FFC0B7B7B7C0FFFFC9B638
:10003000B6B680FFFFDDBEBEBEC1FFFFC1BEBEBE05
:1000400080FFFFBEB6B6B680FFFFBFB7B7B780FF71
:10005000FFD9BABEBEC1FFFF80F7F7F780FFFFFFF1
:10006000BE80BEFFFFFFBF81BEFEFDFFFFBEDDEB1A
:10007000F780FFFFFEFEFEFE80FFFF80DFE7DF80F0
:10008000FFFF80FBF7EF80FFFFC1BEBEBEC1FFFFD9
:10009000CFB7B7B780FFFFC2BDBABEC1FFFFCEB5B5
:1000A000B3B780FFFFB9B6B6B6CEFFFFBFBF80BF04
:1000B000BFFFFF81FEFEFE81FFFF87F9FEF987FF8C
:1000C000FF81FEF1FE81FFFF9CEBF7EB9CFFFF9FA2
:1000D000EFF0EF9FFFFF9EAEB6BABCFFFFFFFFFF42
:1000E000FFFFFFFFFFFFFFFFFEFFFFFFFF86FFFF9A
:1000F000FFFFFFFFFFFDFEFFFFF7F7F7F7F7FFFF3B
:1001000087B7B2BF9FFFFFC1BAB6AEC1FFFFFEFE09
:1001100080DEDEFFFFDEAEB6BADCFFFFC9B6B6BEDC
:10012000DDFFFFFBFBF0FB83FFFFB9B6B6B686FF32
:10013000FFD9B6B6B6C1FFFF9FAFB0BFBFFFFFC9C3
:10014000B6B6B6C9FFFFC1B6B6B6CDFFFFF7F7C169
:10015000F7F7FFFFFFEBF7EBFFFFFFF7F7D5F7F739
:10016000FFFFD7D7D7D7D7FF11241FBECFE5D4E0E5
:10017000DEBFCDBF10E0A0E6B0E0E2EDF7E002C0E8
:1001800005900D92A236B107D9F710E0A2E6B0E0D3
:1001900001C01D92A336B107E1F7F3D218C330CFE7
:1001A000A99AA8988FB9779BFECFA89A0895A99885
:1001B000A8988FB9779BFECFA89AA99A089528ECA2
:1001C00030E007C088EE93E0F9013197F1F701972D
:1001D000D9F79B9BF7CF089580E5E9DF87EFE0DF54
:1001E00082E0E5DFECDF0895EADF82E1E0DF88E826
:1001F00093E128EC30E0F9013197F1F70197D9F755
:10020000DEDF0895EF92FF920F931F93CF93DF935A
:10021000F82EE62E8A01D3DF80E1C9DFC0E0D0E00E
:1002200004C0CDDF8F2DBCDF2196C017D107C8F3E6
:10023000C6DF83E1BCDFC0E0D0E004C0C0DF8E2DAC
:10024000AFDF2196C017D107C8F3B9DF81E1AFDF77
:100250008FEFA6DFDF91CF911F910F91FF90EF906D
:1002600008958F929F92AF92BF92CF92DF92EF92BA
:100270000F931F93A62E142FC22E882E992481E946
:1002800096DF80E994DF882D880F880F880F88DF3C
:100290008A2D880F880F880F8B5F82DF80E080DFD8
:1002A000812F7EDF80E07CDF8C2D7ADF81E078DFBC
:1002B000DD24C11AD108BB24A818B908CA9CA00122
:1002C000CB9C500DDA9C500D1124802F6E2D9ADF9F
:1002D00076DF82E96CDF1F910F91EF90DF90CF9076
:1002E000BF90AF909F908F9008958F929F92AF9202
:1002F000BF92CF92DF92EF92FF920F931F93DF9303
:10030000CF930F92CDB7DEB7A82EB62EC42ED22E25
:100310008E2DEE20F1F446E2842E40E0942E800EE5
:10032000911E90E00EC0F40104918A2D6B2D10E017
:100330003FEFE32EF12C998394DF0894811C911CEC
:100340009981292F2D0D492F4C0D9F5F983059F71A
:100350001EC08130E1F486E2882E80E0982E800E67
:10036000911E90E00DC0F401E4908A2D6B2D0FEFEB
:1003700010E0FF24998375DF0894811C911C9981FA
:10038000292F2D0D492F4C0D9F5F983061F70F904D
:10039000CF91DF911F910F91FF90EF90DF90CF9061
:1003A000BF90AF909F908F900895EF920F931F93FF
:1003B000902F0A33BCF400332CF50B32E1F10C32F0
:1003C00044F4013249F10A32C9F1003209F03FC068
:1003D00020C00D3251F10D322CF10E3201F10F32ED
:1003E000B1F52FC00B359CF501342CF40D3361F1C0
:1003F0000F3369F51DC007E0900280011124075CEE
:10040000114024C007E090028001112400571040E1
:100410001DC006EB10E01AC004EC10E017C00DEB95
:1004200010E014C00BEC10E011C002ED10E00EC0A3
:1004300009ED10E00BC006E211E008C00DE211E08A
:1004400005C004E311E002C00BE311E04EDF1F9191
:100450000F91EF900895BF92CF92DF92EF92FF92AB
:100460000F931F93D82EB42EC82EC39490E001C0D2
:100470009F5FE92FF0E0EE59FF4F80818823C1F79D
:10048000F92E162F0DC0FA94EF2DF0E0EE59FF4F24
:100490008D2D6C2D412F0081EB2C87DF90DE195FB5
:1004A000212F2F5FFF2079F71F910F91FF90EF9081
:1004B000DF90CF90BF900895CF92DF92EF92FF929E
:1004C0000F931F93CF93DF93D82EC62E7A0177DE3A
:1004D00080E16DDE00E010E0CD2DD0E0CC0FDD1F1F
:1004E000C05ADF4F0EC06BDEDD2011F48FEF06C067
:1004F000E881F981E00FF11FE4918E2F51DE0F5F4B
:100500001F4F0E151F0578F35ADE83E150DE00E021
:1005100010E0CC2DD0E0CC0FDD1FC05ADF4F0EC055
:100520004EDECC2011F48FEF06C0E881F981E00F98
:10053000F11FE4918E2F34DE0F5F1F4F0E151F0544
:1005400078F33DDE81E133DE8FEF2ADEDF91CF915C
:100550001F910F91FF90EF90DF90CF9008958F92B1
:100560009F92AF92BF92CF92DF92EF920F931F9321
:10057000C62E142FA22E882E992481E918DE80E938
:1005800016DE882D880F880F880F0ADE8C2D880FC5
:10059000880F880F8B5F04DE80E002DE812F00DE93
:1005A00080E0FEDD8A2DFCDD81E0FADDBB24A11AAE
:1005B000B108DD24C818D9080894C11CD11CAC9C12
:1005C000A001AD9C500DBC9C500D11244F5F5F4F9E
:1005D000802F6E2D71DFF3DD82E9E9DD1F910F9130
:1005E000EF90DF90CF90BF90AF909F908F90089545
:1005F000AA9884EC99E028EC30E0F9013197F1F702
:100600000197D9F7AA9A84EC99E028EC30E0F90137
:100610003197F1F70197D9F786E0C9DD87E1C0DDB1
:1006200087E1BEDD87E1BCDD84E0C1DDC8DD80E0BF
:10063000BEDD83E0B5DD8DE0B3DD81E6B8DD88E6C3
:10064000AFDD80E0ADDD84EDABDD80E5B0DD87E7DB
:10065000A7DD08959F92AF92BF92CF92DF92EF9263
:10066000FF920F931F93CF93DF93B82EA62EE42E05
:10067000922E00E010E0CC24DD24FF2419C0F39476
:10068000C8019DD0C82E0F5F1F4FC80198D0D82E2B
:100690000F5F1F4FEF1411F4FE2C0AC08C9DC00198
:1006A0001124F3E095958795FA95E1F7080F191F46
:1006B000EF1429F7F02E81E97ADD80E978DD8B2DC2
:1006C000880F880F880F6CDD8C2D86958695869512
:1006D0008B0D880F880F880F8B5F62DD80E060DDF7
:1006E0008A2D5EDD80E05CDD8D2D8A0D59DD81E097
:1006F00057DD9920C1F4DC9CE0011124E3E0D5959D
:10070000C795EA95E1F708C05ADD80E150DDC801E0
:1007100056D046DD0F5F1F4F802F8F1990E08C174A
:100720009D0791F71AC081E09816B9F4DC9CE001AE
:10073000112473E0D595C7957A95E1F708C03FDDA0
:1007400083E135DDC8013BD02BDD0F5F1F4F802FCC
:100750008F1990E08C179D0791F731DD81E127DD3E
:100760008FEF1EDD2CDD82E922DDDF91CF911F911D
:100770000F91FF90EF90DF90CF90BF90AF909F9040
:10078000089587B38C6287BB84B3876084BBBC98B1
:10079000A3988898909A6C9A689A6E9A29DF8FEF3E
:1007A0006FEF44EC5AE02EDD81E062E042E021E0B0
:1007B00051DF1ADD04DD10DD80E090E00895E1995D
:1007C000FECF9FBB8EBBE09A99278DB30895F89416
:0207D000FFCF59
:0207D200000025
:00000001FF
